{
  "contractName": "PriceFeed",
  "abi": [
    {
      "inputs": [
        {
          "internalType": "address",
          "name": "_tokenIn",
          "type": "address"
        },
        {
          "internalType": "address",
          "name": "_tokenOut",
          "type": "address"
        },
        {
          "internalType": "contract ISlidingWindowOracle",
          "name": "_slidingWindowOracle",
          "type": "address"
        }
      ],
      "stateMutability": "nonpayable",
      "type": "constructor"
    },
    {
      "inputs": [],
      "name": "oneToken",
      "outputs": [
        {
          "internalType": "uint256",
          "name": "",
          "type": "uint256"
        }
      ],
      "stateMutability": "view",
      "type": "function"
    },
    {
      "inputs": [],
      "name": "slidingWindowOracle",
      "outputs": [
        {
          "internalType": "contract ISlidingWindowOracle",
          "name": "",
          "type": "address"
        }
      ],
      "stateMutability": "view",
      "type": "function"
    },
    {
      "inputs": [],
      "name": "tokenIn",
      "outputs": [
        {
          "internalType": "address",
          "name": "",
          "type": "address"
        }
      ],
      "stateMutability": "view",
      "type": "function"
    },
    {
      "inputs": [],
      "name": "tokenOut",
      "outputs": [
        {
          "internalType": "address",
          "name": "",
          "type": "address"
        }
      ],
      "stateMutability": "view",
      "type": "function"
    },
    {
      "inputs": [],
      "name": "consult",
      "outputs": [
        {
          "internalType": "uint256",
          "name": "",
          "type": "uint256"
        }
      ],
      "stateMutability": "view",
      "type": "function"
    }
  ],
  "bytecode": "0x6101006040523480156200001257600080fd5b506040516200097038038062000970833981810160405281019062000038919062000215565b8273ffffffffffffffffffffffffffffffffffffffff1660808173ffffffffffffffffffffffffffffffffffffffff16815250508173ffffffffffffffffffffffffffffffffffffffff1660a08173ffffffffffffffffffffffffffffffffffffffff16815250508073ffffffffffffffffffffffffffffffffffffffff1660e08173ffffffffffffffffffffffffffffffffffffffff168152505060805173ffffffffffffffffffffffffffffffffffffffff1663313ce5676040518163ffffffff1660e01b8152600401602060405180830381865afa15801562000122573d6000803e3d6000fd5b505050506040513d601f19601f82011682018060405250810190620001489190620002af565b600a6200015691906200046e565b60c08181525050505050620004bf565b600080fd5b600073ffffffffffffffffffffffffffffffffffffffff82169050919050565b600062000198826200016b565b9050919050565b620001aa816200018b565b8114620001b657600080fd5b50565b600081519050620001ca816200019f565b92915050565b6000620001dd826200018b565b9050919050565b620001ef81620001d0565b8114620001fb57600080fd5b50565b6000815190506200020f81620001e4565b92915050565b60008060006060848603121562000231576200023062000166565b5b60006200024186828701620001b9565b93505060206200025486828701620001b9565b92505060406200026786828701620001fe565b9150509250925092565b600060ff82169050919050565b620002898162000271565b81146200029557600080fd5b50565b600081519050620002a9816200027e565b92915050565b600060208284031215620002c857620002c762000166565b5b6000620002d88482850162000298565b91505092915050565b7f4e487b7100000000000000000000000000000000000000000000000000000000600052601160045260246000fd5b60008160011c9050919050565b6000808291508390505b60018511156200036f57808604811115620003475762000346620002e1565b5b6001851615620003575780820291505b8081029050620003678562000310565b945062000327565b94509492505050565b6000826200038a57600190506200045d565b816200039a57600090506200045d565b8160018114620003b35760028114620003be57620003f4565b60019150506200045d565b60ff841115620003d357620003d2620002e1565b5b8360020a915084821115620003ed57620003ec620002e1565b5b506200045d565b5060208310610133831016604e8410600b84101617156200042e5782820a905083811115620004285762000427620002e1565b5b6200045d565b6200043d84848460016200031d565b92509050818404811115620004575762000456620002e1565b5b81810290505b9392505050565b6000819050919050565b60006200047b8262000464565b9150620004888362000271565b9250620004b77fffffffffffffffffffffffffffffffffffffffffffffffffffffffffffffffff848462000378565b905092915050565b60805160a05160c05160e05161045c620005146000396000818161011a0152610241015260008181610177015261021d015260008181610198015261026501526000818160f40152610156015261045c6000f3fe608060405234801561001057600080fd5b50600436106100575760003560e01c80636daf390b1461005c5780637eeda7031461007a578063a27eccc114610098578063c8d5cd6a146100b6578063d0202d3b146100d4575b600080fd5b6100646100f2565b60405161007191906102c8565b60405180910390f35b610082610116565b60405161008f91906102fc565b60405180910390f35b6100a061021b565b6040516100ad91906102fc565b60405180910390f35b6100be61023f565b6040516100cb9190610376565b60405180910390f35b6100dc610263565b6040516100e991906102c8565b60405180910390f35b7f000000000000000000000000000000000000000000000000000000000000000081565b60007f000000000000000000000000000000000000000000000000000000000000000073ffffffffffffffffffffffffffffffffffffffff16638c86f1e47f00000000000000000000000000000000000000000000000000000000000000007f00000000000000000000000000000000000000000000000000000000000000007f00000000000000000000000000000000000000000000000000000000000000006040518463ffffffff1660e01b81526004016101d593929190610391565b602060405180830381865afa1580156101f2573d6000803e3d6000fd5b505050506040513d601f19601f8201168201806040525081019061021691906103f9565b905090565b7f000000000000000000000000000000000000000000000000000000000000000081565b7f000000000000000000000000000000000000000000000000000000000000000081565b7f000000000000000000000000000000000000000000000000000000000000000081565b600073ffffffffffffffffffffffffffffffffffffffff82169050919050565b60006102b282610287565b9050919050565b6102c2816102a7565b82525050565b60006020820190506102dd60008301846102b9565b92915050565b6000819050919050565b6102f6816102e3565b82525050565b600060208201905061031160008301846102ed565b92915050565b6000819050919050565b600061033c61033761033284610287565b610317565b610287565b9050919050565b600061034e82610321565b9050919050565b600061036082610343565b9050919050565b61037081610355565b82525050565b600060208201905061038b6000830184610367565b92915050565b60006060820190506103a660008301866102b9565b6103b360208301856102ed565b6103c060408301846102b9565b949350505050565b600080fd5b6103d6816102e3565b81146103e157600080fd5b50565b6000815190506103f3816103cd565b92915050565b60006020828403121561040f5761040e6103c8565b5b600061041d848285016103e4565b9150509291505056fea26469706673582212201e1783460788c7908c2d4f157f104c99428af272d46101820564948d3d1831f164736f6c634300080c0033",
  "immutableReferences": {
    "514": [
      {
        "length": 32,
        "start": 244
      },
      {
        "length": 32,
        "start": 342
      }
    ],
    "516": [
      {
        "length": 32,
        "start": 408
      },
      {
        "length": 32,
        "start": 613
      }
    ],
    "518": [
      {
        "length": 32,
        "start": 375
      },
      {
        "length": 32,
        "start": 541
      }
    ],
    "521": [
      {
        "length": 32,
        "start": 282
      },
      {
        "length": 32,
        "start": 577
      }
    ]
  },
  "source": "// SPDX-License-Identifier: MIT\npragma solidity 0.8.12;\n\nimport './IUniswapV2Pair.sol';\nimport './ISlidingWindowOracle.sol';\n\n\ninterface ERC20 {\n    function decimals() external view returns(uint8);\n}\n\n\ncontract PriceFeed {\n    address public immutable tokenIn;\n    address public immutable tokenOut;\n    uint public immutable oneToken;\n    ISlidingWindowOracle public immutable slidingWindowOracle;\n\n    constructor(address _tokenIn, address _tokenOut, ISlidingWindowOracle _slidingWindowOracle) {\n        tokenIn = _tokenIn;\n        tokenOut = _tokenOut;\n        slidingWindowOracle = _slidingWindowOracle;\n        oneToken = uint(10)**(ERC20(tokenIn).decimals());\n    }\n\n    function consult() external view returns (uint) {\n        return slidingWindowOracle.consult(tokenIn, oneToken, tokenOut);\n    }\n}\n",
  "sourcePath": "/Users/diwu/Projects/pricefeed-buybacker/contracts/PriceFeed.sol",
  "compiler": {
    "name": "solc",
    "version": "0.8.12+commit.f00d7308.Emscripten.clang"
  },
  "schemaVersion": "3.4.4",
  "updatedAt": "2022-03-03T05:47:21.659Z",
  "devdoc": {
    "kind": "dev",
    "methods": {},
    "version": 1
  },
  "userdoc": {
    "kind": "user",
    "methods": {},
    "version": 1
  }
}