{
  "contractName": "PriceFeedBuyBacker",
  "abi": [
    {
      "inputs": [
        {
          "internalType": "contract IPriceFeedFactory",
          "name": "priceFeedFactory",
          "type": "address"
        },
        {
          "internalType": "contract IERC20",
          "name": "_buyWithToken",
          "type": "address"
        },
        {
          "internalType": "contract IERC20",
          "name": "_buyBackToken",
          "type": "address"
        },
        {
          "internalType": "uint256",
          "name": "_buyBackThreshold",
          "type": "uint256"
        },
        {
          "internalType": "uint256",
          "name": "_buyWithAmount",
          "type": "uint256"
        }
      ],
      "stateMutability": "nonpayable",
      "type": "constructor"
    },
    {
      "anonymous": false,
      "inputs": [
        {
          "indexed": false,
          "internalType": "uint256",
          "name": "buyWithAmount",
          "type": "uint256"
        },
        {
          "indexed": false,
          "internalType": "uint256",
          "name": "buyBackAmount",
          "type": "uint256"
        },
        {
          "indexed": false,
          "internalType": "uint256",
          "name": "price",
          "type": "uint256"
        }
      ],
      "name": "BuyBack",
      "type": "event"
    },
    {
      "anonymous": false,
      "inputs": [
        {
          "indexed": true,
          "internalType": "address",
          "name": "previousOwner",
          "type": "address"
        },
        {
          "indexed": true,
          "internalType": "address",
          "name": "newOwner",
          "type": "address"
        }
      ],
      "name": "OwnershipTransferred",
      "type": "event"
    },
    {
      "anonymous": false,
      "inputs": [
        {
          "indexed": false,
          "internalType": "uint256",
          "name": "buyBackThreshold",
          "type": "uint256"
        }
      ],
      "name": "SetBuyBackThreshold",
      "type": "event"
    },
    {
      "anonymous": false,
      "inputs": [
        {
          "indexed": false,
          "internalType": "uint256",
          "name": "buyWithAmount",
          "type": "uint256"
        }
      ],
      "name": "SetBuyWithAmount",
      "type": "event"
    },
    {
      "inputs": [],
      "name": "buyBackThreshold",
      "outputs": [
        {
          "internalType": "uint256",
          "name": "",
          "type": "uint256"
        }
      ],
      "stateMutability": "view",
      "type": "function"
    },
    {
      "inputs": [],
      "name": "buyBackToken",
      "outputs": [
        {
          "internalType": "contract IERC20",
          "name": "",
          "type": "address"
        }
      ],
      "stateMutability": "view",
      "type": "function"
    },
    {
      "inputs": [],
      "name": "buyWithAmount",
      "outputs": [
        {
          "internalType": "uint256",
          "name": "",
          "type": "uint256"
        }
      ],
      "stateMutability": "view",
      "type": "function"
    },
    {
      "inputs": [],
      "name": "buyWithToken",
      "outputs": [
        {
          "internalType": "contract IERC20",
          "name": "",
          "type": "address"
        }
      ],
      "stateMutability": "view",
      "type": "function"
    },
    {
      "inputs": [],
      "name": "owner",
      "outputs": [
        {
          "internalType": "address",
          "name": "",
          "type": "address"
        }
      ],
      "stateMutability": "view",
      "type": "function"
    },
    {
      "inputs": [],
      "name": "priceFeed",
      "outputs": [
        {
          "internalType": "contract PriceFeed",
          "name": "",
          "type": "address"
        }
      ],
      "stateMutability": "view",
      "type": "function"
    },
    {
      "inputs": [],
      "name": "renounceOwnership",
      "outputs": [],
      "stateMutability": "nonpayable",
      "type": "function"
    },
    {
      "inputs": [],
      "name": "swapPair",
      "outputs": [
        {
          "internalType": "contract IUniswapV2Pair",
          "name": "",
          "type": "address"
        }
      ],
      "stateMutability": "view",
      "type": "function"
    },
    {
      "inputs": [
        {
          "internalType": "address",
          "name": "newOwner",
          "type": "address"
        }
      ],
      "name": "transferOwnership",
      "outputs": [],
      "stateMutability": "nonpayable",
      "type": "function"
    },
    {
      "inputs": [
        {
          "internalType": "uint256",
          "name": "_buyBackThreshold",
          "type": "uint256"
        }
      ],
      "name": "setBuyBackThreshold",
      "outputs": [],
      "stateMutability": "nonpayable",
      "type": "function"
    },
    {
      "inputs": [
        {
          "internalType": "uint256",
          "name": "_buyWithAmount",
          "type": "uint256"
        }
      ],
      "name": "setBuyWithAmount",
      "outputs": [],
      "stateMutability": "nonpayable",
      "type": "function"
    },
    {
      "inputs": [],
      "name": "buyback",
      "outputs": [
        {
          "internalType": "uint256",
          "name": "",
          "type": "uint256"
        }
      ],
      "stateMutability": "nonpayable",
      "type": "function"
    },
    {
      "inputs": [
        {
          "internalType": "contract IERC20",
          "name": "token",
          "type": "address"
        }
      ],
      "name": "recoverERC20",
      "outputs": [],
      "stateMutability": "nonpayable",
      "type": "function"
    }
  ],
  "bytecode": "0x6101006040523480156200001257600080fd5b506040516200283a3803806200283a8339818101604052810190620000389190620006e2565b620000586200004c6200034760201b60201c565b6200034f60201b60201c565b8273ffffffffffffffffffffffffffffffffffffffff1660e08173ffffffffffffffffffffffffffffffffffffffff16815250508373ffffffffffffffffffffffffffffffffffffffff1660c08173ffffffffffffffffffffffffffffffffffffffff1681525050620000d1826200041360201b60201c565b620000e281620004e760201b60201c565b8473ffffffffffffffffffffffffffffffffffffffff1663e6a4390560c05160e0516040518363ffffffff1660e01b8152600401620001239291906200077b565b602060405180830381865afa15801562000141573d6000803e3d6000fd5b505050506040513d601f19601f82011682018060405250810190620001679190620007d9565b73ffffffffffffffffffffffffffffffffffffffff1660808173ffffffffffffffffffffffffffffffffffffffff16815250508473ffffffffffffffffffffffffffffffffffffffff16637f70313660c05160e0516040518363ffffffff1660e01b8152600401620001db9291906200077b565b602060405180830381865afa158015620001f9573d6000803e3d6000fd5b505050506040513d601f19601f820116820180604052508101906200021f919062000850565b73ffffffffffffffffffffffffffffffffffffffff1660a08173ffffffffffffffffffffffffffffffffffffffff1681525050600073ffffffffffffffffffffffffffffffffffffffff1660a05173ffffffffffffffffffffffffffffffffffffffff161415620002c7576040517f08c379a0000000000000000000000000000000000000000000000000000000008152600401620002be90620008e3565b60405180910390fd5b600073ffffffffffffffffffffffffffffffffffffffff1660805173ffffffffffffffffffffffffffffffffffffffff1614156200033c576040517f08c379a0000000000000000000000000000000000000000000000000000000008152600401620003339062000955565b60405180910390fd5b505050505062000a17565b600033905090565b60008060009054906101000a900473ffffffffffffffffffffffffffffffffffffffff169050816000806101000a81548173ffffffffffffffffffffffffffffffffffffffff021916908373ffffffffffffffffffffffffffffffffffffffff1602179055508173ffffffffffffffffffffffffffffffffffffffff168173ffffffffffffffffffffffffffffffffffffffff167f8be0079c531659141344cd1fd0a4f28419497f9722a3daafe3b4186f6b6457e060405160405180910390a35050565b620004236200034760201b60201c565b73ffffffffffffffffffffffffffffffffffffffff1662000449620005bb60201b60201c565b73ffffffffffffffffffffffffffffffffffffffff1614620004a2576040517f08c379a00000000000000000000000000000000000000000000000000000000081526004016200049990620009c7565b60405180910390fd5b806001819055507f2fe3e3bfec66a6fd0eefe7b8bda931399ba9d6e7943fc35ed39fada73a3c15c3600154604051620004dc9190620009fa565b60405180910390a150565b620004f76200034760201b60201c565b73ffffffffffffffffffffffffffffffffffffffff166200051d620005bb60201b60201c565b73ffffffffffffffffffffffffffffffffffffffff161462000576576040517f08c379a00000000000000000000000000000000000000000000000000000000081526004016200056d90620009c7565b60405180910390fd5b806002819055507f2decf040199663100b5e9307c30526f2be25cc23ed0ce73ab288f1ec4136dc86600254604051620005b09190620009fa565b60405180910390a150565b60008060009054906101000a900473ffffffffffffffffffffffffffffffffffffffff16905090565b600080fd5b600073ffffffffffffffffffffffffffffffffffffffff82169050919050565b60006200061682620005e9565b9050919050565b60006200062a8262000609565b9050919050565b6200063c816200061d565b81146200064857600080fd5b50565b6000815190506200065c8162000631565b92915050565b60006200066f8262000609565b9050919050565b620006818162000662565b81146200068d57600080fd5b50565b600081519050620006a18162000676565b92915050565b6000819050919050565b620006bc81620006a7565b8114620006c857600080fd5b50565b600081519050620006dc81620006b1565b92915050565b600080600080600060a08688031215620007015762000700620005e4565b5b600062000711888289016200064b565b9550506020620007248882890162000690565b9450506040620007378882890162000690565b93505060606200074a88828901620006cb565b92505060806200075d88828901620006cb565b9150509295509295909350565b620007758162000609565b82525050565b60006040820190506200079260008301856200076a565b620007a160208301846200076a565b9392505050565b620007b38162000609565b8114620007bf57600080fd5b50565b600081519050620007d381620007a8565b92915050565b600060208284031215620007f257620007f1620005e4565b5b60006200080284828501620007c2565b91505092915050565b6000620008188262000609565b9050919050565b6200082a816200080b565b81146200083657600080fd5b50565b6000815190506200084a816200081f565b92915050565b600060208284031215620008695762000868620005e4565b5b6000620008798482850162000839565b91505092915050565b600082825260208201905092915050565b7f696e76616c696420707269636520666565640000000000000000000000000000600082015250565b6000620008cb60128362000882565b9150620008d88262000893565b602082019050919050565b60006020820190508181036000830152620008fe81620008bc565b9050919050565b7f696e76616c696420737761702070616972000000000000000000000000000000600082015250565b60006200093d60118362000882565b91506200094a8262000905565b602082019050919050565b6000602082019050818103600083015262000970816200092e565b9050919050565b7f4f776e61626c653a2063616c6c6572206973206e6f7420746865206f776e6572600082015250565b6000620009af60208362000882565b9150620009bc8262000977565b602082019050919050565b60006020820190508181036000830152620009e281620009a0565b9050919050565b620009f481620006a7565b82525050565b600060208201905062000a116000830184620009e9565b92915050565b60805160a05160c05160e051611daa62000a9060003960006105a0015260008181610264015281816109030152610ab20152600081816103d5015261082e0152600081816102400152818161094701528181610a0d01528181610af201528181610bb501528181610ca50152610d680152611daa6000f3fe608060405234801561001057600080fd5b50600436106100cf5760003560e01c80638da5cb5b1161008c578063dfbfda8511610066578063dfbfda85146101ca578063efac4585146101e8578063f2fde38b14610204578063f8ec691114610220576100cf565b80638da5cb5b146101725780639e8c708e14610190578063ab68dd19146101ac576100cf565b806326991cc8146100d45780632fdfdea4146100f25780634183ce1f146101105780636f15d9751461012c578063715018a61461014a578063741bef1a14610154575b600080fd5b6100dc61023e565b6040516100e991906111ab565b60405180910390f35b6100fa610262565b60405161010791906111e7565b60405180910390f35b61012a6004803603810190610125919061123d565b610286565b005b610134610345565b6040516101419190611279565b60405180910390f35b61015261034b565b005b61015c6103d3565b60405161016991906112b5565b60405180910390f35b61017a6103f7565b60405161018791906112f1565b60405180910390f35b6101aa60048036038101906101a5919061134a565b610420565b005b6101b461059e565b6040516101c191906111e7565b60405180910390f35b6101d26105c2565b6040516101df9190611279565b60405180910390f35b61020260048036038101906101fd919061123d565b6105c8565b005b61021e600480360381019061021991906113a3565b610687565b005b61022861077f565b6040516102359190611279565b60405180910390f35b7f000000000000000000000000000000000000000000000000000000000000000081565b7f000000000000000000000000000000000000000000000000000000000000000081565b61028e610e94565b73ffffffffffffffffffffffffffffffffffffffff166102ac6103f7565b73ffffffffffffffffffffffffffffffffffffffff1614610302576040517f08c379a00000000000000000000000000000000000000000000000000000000081526004016102f99061142d565b60405180910390fd5b806002819055507f2decf040199663100b5e9307c30526f2be25cc23ed0ce73ab288f1ec4136dc8660025460405161033a9190611279565b60405180910390a150565b60015481565b610353610e94565b73ffffffffffffffffffffffffffffffffffffffff166103716103f7565b73ffffffffffffffffffffffffffffffffffffffff16146103c7576040517f08c379a00000000000000000000000000000000000000000000000000000000081526004016103be9061142d565b60405180910390fd5b6103d16000610e9c565b565b7f000000000000000000000000000000000000000000000000000000000000000081565b60008060009054906101000a900473ffffffffffffffffffffffffffffffffffffffff16905090565b610428610e94565b73ffffffffffffffffffffffffffffffffffffffff166104466103f7565b73ffffffffffffffffffffffffffffffffffffffff161461049c576040517f08c379a00000000000000000000000000000000000000000000000000000000081526004016104939061142d565b60405180910390fd5b8073ffffffffffffffffffffffffffffffffffffffff1663a9059cbb6104c06103f7565b8373ffffffffffffffffffffffffffffffffffffffff166370a08231306040518263ffffffff1660e01b81526004016104f991906112f1565b602060405180830381865afa158015610516573d6000803e3d6000fd5b505050506040513d601f19601f8201168201806040525081019061053a9190611462565b6040518363ffffffff1660e01b815260040161055792919061148f565b6020604051808303816000875af1158015610576573d6000803e3d6000fd5b505050506040513d601f19601f8201168201806040525081019061059a91906114f0565b5050565b7f000000000000000000000000000000000000000000000000000000000000000081565b60025481565b6105d0610e94565b73ffffffffffffffffffffffffffffffffffffffff166105ee6103f7565b73ffffffffffffffffffffffffffffffffffffffff1614610644576040517f08c379a000000000000000000000000000000000000000000000000000000000815260040161063b9061142d565b60405180910390fd5b806001819055507f2fe3e3bfec66a6fd0eefe7b8bda931399ba9d6e7943fc35ed39fada73a3c15c360015460405161067c9190611279565b60405180910390a150565b61068f610e94565b73ffffffffffffffffffffffffffffffffffffffff166106ad6103f7565b73ffffffffffffffffffffffffffffffffffffffff1614610703576040517f08c379a00000000000000000000000000000000000000000000000000000000081526004016106fa9061142d565b60405180910390fd5b600073ffffffffffffffffffffffffffffffffffffffff168173ffffffffffffffffffffffffffffffffffffffff161415610773576040517f08c379a000000000000000000000000000000000000000000000000000000000815260040161076a9061158f565b60405180910390fd5b61077c81610e9c565b50565b60003373ffffffffffffffffffffffffffffffffffffffff166107a06103f7565b73ffffffffffffffffffffffffffffffffffffffff161461082a573373ffffffffffffffffffffffffffffffffffffffff163273ffffffffffffffffffffffffffffffffffffffff1614610829576040517f08c379a000000000000000000000000000000000000000000000000000000000815260040161082090611621565b60405180910390fd5b5b60007f000000000000000000000000000000000000000000000000000000000000000073ffffffffffffffffffffffffffffffffffffffff16637eeda7036040518163ffffffff1660e01b8152600401602060405180830381865afa158015610897573d6000803e3d6000fd5b505050506040513d601f19601f820116820180604052508101906108bb9190611462565b90506001548110610901576040517f08c379a00000000000000000000000000000000000000000000000000000000081526004016108f89061168d565b60405180910390fd5b7f000000000000000000000000000000000000000000000000000000000000000073ffffffffffffffffffffffffffffffffffffffff166323b872dd6109456103f7565b7f00000000000000000000000000000000000000000000000000000000000000006002546040518463ffffffff1660e01b8152600401610987939291906116ad565b6020604051808303816000875af11580156109a6573d6000803e3d6000fd5b505050506040513d601f19601f820116820180604052508101906109ca91906114f0565b610a09576040517f08c379a0000000000000000000000000000000000000000000000000000000008152600401610a0090611730565b60405180910390fd5b60007f000000000000000000000000000000000000000000000000000000000000000073ffffffffffffffffffffffffffffffffffffffff16630dfe16816040518163ffffffff1660e01b8152600401602060405180830381865afa158015610a76573d6000803e3d6000fd5b505050506040513d601f19601f82011682018060405250810190610a9a9190611765565b73ffffffffffffffffffffffffffffffffffffffff167f000000000000000000000000000000000000000000000000000000000000000073ffffffffffffffffffffffffffffffffffffffff161415610ca0576000807f000000000000000000000000000000000000000000000000000000000000000073ffffffffffffffffffffffffffffffffffffffff16630902f1ac6040518163ffffffff1660e01b8152600401606060405180830381865afa158015610b5b573d6000803e3d6000fd5b505050506040513d601f19601f82011682018060405250810190610b7f9190611814565b506dffffffffffffffffffffffffffff1691506dffffffffffffffffffffffffffff169150610bb16002548383610f60565b92507f000000000000000000000000000000000000000000000000000000000000000073ffffffffffffffffffffffffffffffffffffffff1663022c0d9f600085610bfa6103f7565b600067ffffffffffffffff811115610c1557610c14611867565b5b6040519080825280601f01601f191660200182016040528015610c475781602001600182028036833780820191505090505b506040518563ffffffff1660e01b8152600401610c67949392919061196a565b600060405180830381600087803b158015610c8157600080fd5b505af1158015610c95573d6000803e3d6000fd5b505050505050610e4f565b6000807f000000000000000000000000000000000000000000000000000000000000000073ffffffffffffffffffffffffffffffffffffffff16630902f1ac6040518163ffffffff1660e01b8152600401606060405180830381865afa158015610d0e573d6000803e3d6000fd5b505050506040513d601f19601f82011682018060405250810190610d329190611814565b506dffffffffffffffffffffffffffff1691506dffffffffffffffffffffffffffff169150610d646002548284610f60565b92507f000000000000000000000000000000000000000000000000000000000000000073ffffffffffffffffffffffffffffffffffffffff1663022c0d9f846000610dad6103f7565b600067ffffffffffffffff811115610dc857610dc7611867565b5b6040519080825280601f01601f191660200182016040528015610dfa5781602001600182028036833780820191505090505b506040518563ffffffff1660e01b8152600401610e1a94939291906119b6565b600060405180830381600087803b158015610e3457600080fd5b505af1158015610e48573d6000803e3d6000fd5b5050505050505b7fc40103bb5dbcb8cdc498524da12b7d249a55b29f5588b12feeb900eda144dc2f6002548284604051610e8493929190611a02565b60405180910390a1809250505090565b600033905090565b60008060009054906101000a900473ffffffffffffffffffffffffffffffffffffffff169050816000806101000a81548173ffffffffffffffffffffffffffffffffffffffff021916908373ffffffffffffffffffffffffffffffffffffffff1602179055508173ffffffffffffffffffffffffffffffffffffffff168173ffffffffffffffffffffffffffffffffffffffff167f8be0079c531659141344cd1fd0a4f28419497f9722a3daafe3b4186f6b6457e060405160405180910390a35050565b6000808411610fa4576040517f08c379a0000000000000000000000000000000000000000000000000000000008152600401610f9b90611aab565b60405180910390fd5b600083118015610fb45750600082115b610ff3576040517f08c379a0000000000000000000000000000000000000000000000000000000008152600401610fea90611b3d565b60405180910390fd5b600061100a6103e58661106690919063ffffffff16565b90506000611021848361106690919063ffffffff16565b9050600061104c8361103e6103e88961106690919063ffffffff16565b6110d390919063ffffffff16565b9050808261105a9190611bbb565b93505050509392505050565b60008082148061108e57508282838561107f9190611bec565b92508261108c9190611bbb565b145b6110cd576040517f08c379a00000000000000000000000000000000000000000000000000000000081526004016110c490611c92565b60405180910390fd5b92915050565b60008282846110e29190611cb2565b9150811015611126576040517f08c379a000000000000000000000000000000000000000000000000000000000815260040161111d90611d54565b60405180910390fd5b92915050565b600073ffffffffffffffffffffffffffffffffffffffff82169050919050565b6000819050919050565b600061117161116c6111678461112c565b61114c565b61112c565b9050919050565b600061118382611156565b9050919050565b600061119582611178565b9050919050565b6111a58161118a565b82525050565b60006020820190506111c0600083018461119c565b92915050565b60006111d182611178565b9050919050565b6111e1816111c6565b82525050565b60006020820190506111fc60008301846111d8565b92915050565b600080fd5b6000819050919050565b61121a81611207565b811461122557600080fd5b50565b60008135905061123781611211565b92915050565b60006020828403121561125357611252611202565b5b600061126184828501611228565b91505092915050565b61127381611207565b82525050565b600060208201905061128e600083018461126a565b92915050565b600061129f82611178565b9050919050565b6112af81611294565b82525050565b60006020820190506112ca60008301846112a6565b92915050565b60006112db8261112c565b9050919050565b6112eb816112d0565b82525050565b600060208201905061130660008301846112e2565b92915050565b6000611317826112d0565b9050919050565b6113278161130c565b811461133257600080fd5b50565b6000813590506113448161131e565b92915050565b6000602082840312156113605761135f611202565b5b600061136e84828501611335565b91505092915050565b611380816112d0565b811461138b57600080fd5b50565b60008135905061139d81611377565b92915050565b6000602082840312156113b9576113b8611202565b5b60006113c78482850161138e565b91505092915050565b600082825260208201905092915050565b7f4f776e61626c653a2063616c6c6572206973206e6f7420746865206f776e6572600082015250565b60006114176020836113d0565b9150611422826113e1565b602082019050919050565b600060208201905081810360008301526114468161140a565b9050919050565b60008151905061145c81611211565b92915050565b60006020828403121561147857611477611202565b5b60006114868482850161144d565b91505092915050565b60006040820190506114a460008301856112e2565b6114b1602083018461126a565b9392505050565b60008115159050919050565b6114cd816114b8565b81146114d857600080fd5b50565b6000815190506114ea816114c4565b92915050565b60006020828403121561150657611505611202565b5b6000611514848285016114db565b91505092915050565b7f4f776e61626c653a206e6577206f776e657220697320746865207a65726f206160008201527f6464726573730000000000000000000000000000000000000000000000000000602082015250565b60006115796026836113d0565b91506115848261151d565b604082019050919050565b600060208201905081810360008301526115a88161156c565b9050919050565b7f6275796261636b2063616e206f6e6c792062652074726967676572656420627960008201527f20616e20454f4100000000000000000000000000000000000000000000000000602082015250565b600061160b6027836113d0565b9150611616826115af565b604082019050919050565b6000602082019050818103600083015261163a816115fe565b9050919050565b7f70726963652069732061626f7665207468726573686f6c640000000000000000600082015250565b60006116776018836113d0565b915061168282611641565b602082019050919050565b600060208201905081810360008301526116a68161166a565b9050919050565b60006060820190506116c260008301866112e2565b6116cf60208301856112e2565b6116dc604083018461126a565b949350505050565b7f6661696c656420746f207472616e7366657220746f2073776170207061697200600082015250565b600061171a601f836113d0565b9150611725826116e4565b602082019050919050565b600060208201905081810360008301526117498161170d565b9050919050565b60008151905061175f81611377565b92915050565b60006020828403121561177b5761177a611202565b5b600061178984828501611750565b91505092915050565b60006dffffffffffffffffffffffffffff82169050919050565b6117b581611792565b81146117c057600080fd5b50565b6000815190506117d2816117ac565b92915050565b600063ffffffff82169050919050565b6117f1816117d8565b81146117fc57600080fd5b50565b60008151905061180e816117e8565b92915050565b60008060006060848603121561182d5761182c611202565b5b600061183b868287016117c3565b935050602061184c868287016117c3565b925050604061185d868287016117ff565b9150509250925092565b7f4e487b7100000000000000000000000000000000000000000000000000000000600052604160045260246000fd5b6000819050919050565b60006118bb6118b66118b184611896565b61114c565b611207565b9050919050565b6118cb816118a0565b82525050565b600081519050919050565b600082825260208201905092915050565b60005b8381101561190b5780820151818401526020810190506118f0565b8381111561191a576000848401525b50505050565b6000601f19601f8301169050919050565b600061193c826118d1565b61194681856118dc565b93506119568185602086016118ed565b61195f81611920565b840191505092915050565b600060808201905061197f60008301876118c2565b61198c602083018661126a565b61199960408301856112e2565b81810360608301526119ab8184611931565b905095945050505050565b60006080820190506119cb600083018761126a565b6119d860208301866118c2565b6119e560408301856112e2565b81810360608301526119f78184611931565b905095945050505050565b6000606082019050611a17600083018661126a565b611a24602083018561126a565b611a31604083018461126a565b949350505050565b7f556e697377617056324c6962726172793a20494e53554646494349454e545f4960008201527f4e5055545f414d4f554e54000000000000000000000000000000000000000000602082015250565b6000611a95602b836113d0565b9150611aa082611a39565b604082019050919050565b60006020820190508181036000830152611ac481611a88565b9050919050565b7f556e697377617056324c6962726172793a20494e53554646494349454e545f4c60008201527f4951554944495459000000000000000000000000000000000000000000000000602082015250565b6000611b276028836113d0565b9150611b3282611acb565b604082019050919050565b60006020820190508181036000830152611b5681611b1a565b9050919050565b7f4e487b7100000000000000000000000000000000000000000000000000000000600052601260045260246000fd5b7f4e487b7100000000000000000000000000000000000000000000000000000000600052601160045260246000fd5b6000611bc682611207565b9150611bd183611207565b925082611be157611be0611b5d565b5b828204905092915050565b6000611bf782611207565b9150611c0283611207565b9250817fffffffffffffffffffffffffffffffffffffffffffffffffffffffffffffffff0483118215151615611c3b57611c3a611b8c565b5b828202905092915050565b7f64732d6d6174682d6d756c2d6f766572666c6f77000000000000000000000000600082015250565b6000611c7c6014836113d0565b9150611c8782611c46565b602082019050919050565b60006020820190508181036000830152611cab81611c6f565b9050919050565b6000611cbd82611207565b9150611cc883611207565b9250827fffffffffffffffffffffffffffffffffffffffffffffffffffffffffffffffff03821115611cfd57611cfc611b8c565b5b828201905092915050565b7f64732d6d6174682d6164642d6f766572666c6f77000000000000000000000000600082015250565b6000611d3e6014836113d0565b9150611d4982611d08565b602082019050919050565b60006020820190508181036000830152611d6d81611d31565b905091905056fea26469706673582212208b05cace81f4a03bb4f269defc37350f9cb3b0b2a724eae9e2a258be6893f99f64736f6c634300080c0033",
  "immutableReferences": {
    "585": [
      {
        "length": 32,
        "start": 576
      },
      {
        "length": 32,
        "start": 2375
      },
      {
        "length": 32,
        "start": 2573
      },
      {
        "length": 32,
        "start": 2802
      },
      {
        "length": 32,
        "start": 2997
      },
      {
        "length": 32,
        "start": 3237
      },
      {
        "length": 32,
        "start": 3432
      }
    ],
    "588": [
      {
        "length": 32,
        "start": 981
      },
      {
        "length": 32,
        "start": 2094
      }
    ],
    "591": [
      {
        "length": 32,
        "start": 612
      },
      {
        "length": 32,
        "start": 2307
      },
      {
        "length": 32,
        "start": 2738
      }
    ],
    "594": [
      {
        "length": 32,
        "start": 1440
      }
    ]
  },
  "source": "// SPDX-License-Identifier: MIT\npragma solidity 0.8.12;\n\nimport './IUniswapV2Pair.sol';\nimport './PriceFeed.sol';\nimport './Ownable.sol';\nimport './IPriceFeedFactory.sol';\nimport './UniswapV2Library.sol';\nimport './IERC20.sol';\n\n\ncontract PriceFeedBuyBacker is Ownable {\n\n    IUniswapV2Pair public immutable swapPair;\n    PriceFeed public immutable priceFeed;\n    IERC20 public immutable buyWithToken;\n    IERC20 public immutable buyBackToken;\n\n    // the oracle price threshold that enables buyback\n    uint public buyBackThreshold;\n    // the amount of buyWithToken to use per buyback\n    uint public buyWithAmount;\n\n    event BuyBack(uint buyWithAmount, uint buyBackAmount, uint price);\n    event SetBuyBackThreshold(uint buyBackThreshold);\n    event SetBuyWithAmount(uint buyWithAmount);\n\n    constructor(\n        IPriceFeedFactory priceFeedFactory,\n        IERC20 _buyWithToken,\n        IERC20 _buyBackToken,\n        uint _buyBackThreshold,\n        uint _buyWithAmount\n    ) {\n        buyBackToken = _buyBackToken;\n        buyWithToken = _buyWithToken;\n\n        setBuyBackThreshold(_buyBackThreshold);\n        setBuyWithAmount(_buyWithAmount);\n\n        swapPair = IUniswapV2Pair(priceFeedFactory.getPair(address(buyWithToken), address(buyBackToken)));\n        priceFeed = priceFeedFactory.getOracle(address(buyWithToken), address(buyBackToken));\n\n        require(address(priceFeed) != address(0), \"invalid price feed\");\n        require(address(swapPair) != address(0), \"invalid swap pair\");\n    }\n\n    function setBuyBackThreshold(uint _buyBackThreshold) public onlyOwner {\n        buyBackThreshold = _buyBackThreshold;\n        emit SetBuyBackThreshold(buyBackThreshold);\n    }\n\n    function setBuyWithAmount(uint _buyWithAmount) public onlyOwner {\n        buyWithAmount = _buyWithAmount;\n        emit SetBuyWithAmount(buyWithAmount);\n    }\n\n    function buyback() public returns (uint) {\n        if (owner() != msg.sender) {\n            // EOA and owner are allowed to trigger buyback\n            // do not allow other contracts to trigger buyback as part of sandwich\n            require(tx.origin == msg.sender, \"buyback can only be triggered by an EOA\");\n        }\n\n        // verify that the oracle price is below threshold\n        uint price = priceFeed.consult();\n        require(price < buyBackThreshold, \"price is above threshold\");\n\n        // transfer the funds from the owner's wallet\n        require(\n            buyWithToken.transferFrom(owner(), address(swapPair), buyWithAmount),\n            \"failed to transfer to swap pair\");\n\n        uint buyBackAmount;\n        if (address(buyWithToken) == swapPair.token0()) {\n            (uint buyWithReserve, uint buyBackReserve,) = swapPair.getReserves();\n            buyBackAmount = UniswapV2Library.getAmountOut(buyWithAmount, buyWithReserve, buyBackReserve);\n            swapPair.swap(0, buyBackAmount, owner(), new bytes(0));\n        } else {\n            (uint buyBackReserve, uint buyWithReserve,) = swapPair.getReserves();\n            buyBackAmount = UniswapV2Library.getAmountOut(buyWithAmount, buyWithReserve, buyBackReserve);\n            swapPair.swap(buyBackAmount, 0, owner(), new bytes(0));\n        }\n\n        emit BuyBack(buyWithAmount, buyBackAmount, price);\n        return buyBackAmount;\n    }\n\n    function recoverERC20(IERC20 token) external onlyOwner {\n        token.transfer(owner(), token.balanceOf(address(this)));\n    }\n}\n",
  "sourcePath": "/Users/diwu/Projects/pricefeed-buybacker/contracts/PriceFeedBuyBacker.sol",
  "compiler": {
    "name": "solc",
    "version": "0.8.12+commit.f00d7308.Emscripten.clang"
  },
  "schemaVersion": "3.4.4",
  "updatedAt": "2022-03-03T05:47:21.668Z",
  "devdoc": {
    "kind": "dev",
    "methods": {
      "owner()": {
        "details": "Returns the address of the current owner."
      },
      "renounceOwnership()": {
        "details": "Leaves the contract without owner. It will not be possible to call `onlyOwner` functions anymore. Can only be called by the current owner. NOTE: Renouncing ownership will leave the contract without an owner, thereby removing any functionality that is only available to the owner."
      },
      "transferOwnership(address)": {
        "details": "Transfers ownership of the contract to a new account (`newOwner`). Can only be called by the current owner."
      }
    },
    "version": 1
  },
  "userdoc": {
    "kind": "user",
    "methods": {},
    "version": 1
  }
}